S0110000526F74617279456E632E737265637C
S11300000C943E000C945B000C945B000C945B001D
S11300100C948F000C945B000C945B000C945B00BC
S11300200C945B000C945B000C945B000C945B00E0
S11300300C945B000C945B000C945B000C945B00D0
S11300400C94EF010C945B000C945B000C945B002B
S11300500C945B000C945B000C945B000C945B00B0
S11300600C945B000C945B000C945B000C945B00A0
S11300700C945B000C945B000C945B0011241FBE79
S1130080CFEFD0E1DEBFCDBF11E0A0E0B1E0E0EB07
S1130090F4E002C005900D92AA3DB107D9F724E01F
S11300A0AAEDB1E001C01D92A53AB207E1F70E94A2
S11300B05D000C9456020C9400000E9413020E94EE
S11300C0E6010E9465007894FFCF81B181B982B1C5
S11300D08FEF82B991E090936800EBE6F0E09081B5
S11300E08083539A5B9A80B1809300015B9880B1BE
S11300F080930101E5EAF3E085EA94E02FEF219390
S1130100E817F907E1F7E9E5F1E080E0A191B0E053
S1130110AB55BC4F8C938F5F8038C1F708951F9205
S11301200F920FB60F9211242F933F934F935F9327
S11301306F937F938F939F93AF93BF93EF93FF93AB
S113014082E091E00E9427028091A00381110DC0FA
S113015090B18091010189279091A403892B809308
S1130160A40380B1809301010CC090B1809100017F
S113017089279091A203892B8093A20380B1809355
S11301800001FF91EF91BF91AF919F918F917F916A
S11301906F915F914F913F912F910F900FBE0F90F0
S11301A01F90189580B10895811119C05B9A8091B0
S11301B0A403882389F00E94D200E82FF0E0EB55D5
S11301C0FC4F80818093A3030E94D200E82FF0E0CB
S11301D0EB55FC4F808108958091A30308955B98AB
S11301E08091A2038823A9F08091A403882389F035
S11301F00E94D200E82FF0E0EB55FC4F8081809301
S1130200A1030E94D200E82FF0E0EB55FC4F80815F
S113021008958091A1030895EF92FF920F931F9385
S1130220CF93DF930091DD01002321F0EE24EA94C3
S1130230E00E04C00F2EFAE4EF2EF02D1091DC0135
S1130240112321F0FF24FA94F10E04C00F2EFAE4D6
S1130250FF2EF02D8091A003811143C0C02FD0E068
S11302600E94D400FE01EB5AFC4F8083823080F45C
S1130270EE2DF0E0EB5AFC4F90819F3748F0CC0F05
S1130280DD1FC154DD4F81E090E09983888320C055
S11302908F3780F0AE2DB0E0AB5ABC4F9C919230BA
S11302A048F4CC0FDD1FC154DD4F8FEF9FEF9983CE
S11302B088830EC0CC0FDD1FC154DD4F90E0EE2DBE
S11302C0F0E0EB5AFC4F2081821B910999838883CB
S11302D00A3419F41092DD0146C00F5F0093DD016A
S11302E042C0C12FD0E00E94D400FE01EC58FD4F63
S11302F08083823080F4EF2DF0E0EC58FD4F908144
S11303009F3748F0CC0FDD1FC252DE4F81E090E0F2
S11303109983888320C08F3780F0AF2DB0E0AC582C
S1130320BD4F9C91923048F4CC0FDD1FC252DE4F7A
S11303308FEF9FEF998388830EC0CC0FDD1FC252CD
S1130340DE4F90E0EF2DF0E0EC58FD4F2081821B52
S11303509109998388831A3419F41092DC0103C03B
S11303601F5F1093DC01DF91CF911F910F91FF90DC
S1130370EF9008958091A003811107C00E94D400DA
S11303808093A3038093DB0106C00E94D400809372
S1130390A1038093DA010E940C01E091DD01F0E0F9
S11303A0EE0FFF1FE154FD4F80819181009731F0E2
S11303B00E94360288E391E00E94270281E0909136
S11303C0A003911180E08093A00308958AEE87BD75
S11303D082E084BD80936E0085E085BD08951F9200
S11303E00F920FB60F9211242F933F934F935F9365
S11303F06F937F938F939F93AF93BF93EF93FF93E9
S11304000E94BA01FF91EF91BF91AF919F918F919B
S11304107F916F915F914F913F912F910F900FBEFC
S11304200F901F9018951092C5008DE48093C4001E
S113043088E18093C10086E08093C2000895E0ECD7
S1130440F0E0908195FFFDCF8093C6000895CF938F
S1130450DF93EC018881882331F021960E941F02EA
S113046089918111FBCFDF91CF910895CF93C82F4C
S11304708A3048F08DECC89F812D1124869586958D
S113048086950E9436028DECC89F812D1124869595
S113049086958695880F982F990F990F890FC81BF9
S11304A08C2F805D0E941F02CF910895F894FFCF96
S11304B0FFFF427574746F6E20696E746572727595
S11304C070740A00494E444558204552524F520018
S11304D0526F7461727920656E636F646572203146
S11304E0205741524E494E470A00526F7461727947
S11304F020656E636F6465722032205741524E4905
S11305004E470A0009090909007F3F3E3A38B89866
S1130510180848494D4F0F2FAFBF9F1F1D1C5C4C3F
S11305200C0424A4A6A78797D7DFCF8F8E0E2E2680
S11305300602125253D3C3CBEBEFE7C74707171397
S113054003010929A9E9E1E5F5F7F3E3A3838B891D
S113055081808494D4F4F0F2FAFBF9F1D1C1C5C4DA
S1130560C040424A6A7A78797DFDFCF8E8E0E262AC
S113057060202125353D3CBCBEFE7E7C747071310B
S10D0580301090929A9E1E5E5F00F8
S9030000FC
