S0110000526F74617279456E632E737265637C
S11300000C943E000C945B000C945B000C945B001D
S11300100C945B000C9475000C945B000C945B00D6
S11300200C945B000C945B000C945B000C945B00E0
S11300300C945B000C945B000C945B000C945B00D0
S11300400C94B8000C945B000C945B000C945B0063
S11300500C945B000C945B000C945B000C945B00B0
S11300600C945B000C945B000C945B000C945B00A0
S11300700C945B000C945B000C945B0011241FBE79
S1130080CFEFD0E1DEBFCDBF11E0A0E0B1E0E8EEFC
S1130090F1E002C005900D92A238B107D9F721E032
S11300A0A2E8B1E001C01D92A438B207E1F70E94B2
S11300B05D000C94F2000C9400000E94DE000E948B
S11300C0AF000E9465007894FFCF84B184B985B1F4
S11300D08FEF85B992E090936800ECE6F0E09081B0
S11300E0808383B18093000108951F920F920FB60D
S11300F00F9211248F939F9393B1809100018927CC
S113010090918301892B8093830183B180930001B3
S11301109F918F910F900FBE0F901F90189583B1F0
S11301200895CF93DF9380918301882389F0C0E001
S1130130EC2FF0E0EF5FFE4FD0810E948F00D813C8
S113014004C0C09382018C2F07C0CF5F8AF703C01D
S11301508091820101C08FEFDF91CF9108958AEEE3
S113016087BD82E084BD80936E0085E085BD0895DF
S11301701F920F920FB60F9211242F933F934F9318
S11301805F936F937F938F939F93AF93BF93EF93FB
S1130190FF930E9491000E94EA00FF91EF91BF91AA
S11301A0AF919F918F917F916F915F914F913F910B
S11301B02F910F900FBE0F901F9018951092C500AD
S11301C08DE48093C40088E18093C10086E080932D
S11301D0C2000895E0ECF0E0908195FFFDCF80939C
S10B01E0C6000895F894FFCF56
S11301E8FF7F3F3E3A38B898180848494D4F0F2FBB
S11301F8AFBF9F1F1D1C5C4C0C0424A4A6A78797A3
S1130208D7DFCF8F8E0E2E260602125253D3C3CBBE
S1130218EBEFE7C74707171303010929A9E9E1E544
S1130228F5F7F3E3A3838B8981808494D4F4F0F203
S1130238FAFBF9F1D1C1C5C4C040424A6A7A787957
S11302487DFDFCF8E8E0E26260202125353D3CBCF8
S1130258BEFE7E7C74707131301090929A9E1E5E40
S10502685F0031
S9030000FC
