S0110000526F74617279456E632E737265637C
S11300000C943E000C945B000C945B000C945B001D
S11300100C947B000C945B000C945B000C945B00D0
S11300200C945B000C945B000C945B000C945B00E0
S11300300C945B000C945B000C945B000C945B00D0
S11300400C9430010C945B000C945B000C945B00EA
S11300500C945B000C945B000C945B000C945B00B0
S11300600C945B000C945B000C945B000C945B00A0
S11300700C945B000C945B000C945B0011241FBE79
S1130080CFEFD0E1DEBFCDBF11E0A0E0B1E0E2E30D
S1130090F3E002C005900D92A239B107D9F721E02F
S11300A0A2E9B1E001C01D92A939B207E1F70E94AB
S11300B05D000C9497010C9400000E9454010E946E
S11300C027010E9465007894FFCF81B181B982B184
S11300D08FEF82B991E090936800EBE6F0E09081B5
S11300E08083539A5B9A80B1809300015B9880B1BE
S11300F08093010108951F920F920FB60F9211245D
S11301008F939F938091940181110DC090B1809140
S11301100101892790919801892B8093980180B1DE
S1130120809301010CC090B18091000189279091C6
S11301309601892B8093960180B1809300019F9151
S11301408F910F900FBE0F901F90189580B1089556
S1130150CF93DF93811119C05B9A80919801882312
S113016089F0C0E0EC2FF0E0EE5EFE4FD0810E94FB
S1130170A600D81304C0C09397018C2F22C0CF5F70
S11301808AF71CC0809197011CC05B9880919601EE
S1130190882389F0C0E0EC2FF0E0EE5EFE4FD081C2
S11301A00E94A600D81304C0C09395018C2F09C0E7
S11301B0CF5F8AF705C08091950103C08FEF01C01E
S11301C08FEFDF91CF91089580919401811120C028
S11301D00E94A8008093970190919301891781F060
S11301E082E091E00E946801809194010E9477016D
S11301F08BE091E00E946801809197010E94770151
S1130200809197018093930181E0809394010895F4
S11302100E94A8008093950190919201891781F022
S113022082E091E00E946801809194010E9477012C
S11302308BE091E00E946801809195010E94770112
S113024080919501809392011092940108958AEE11
S113025087BD82E084BD80936E0085E085BD0895EE
S11302601F920F920FB60F9211242F933F934F9327
S11302705F936F937F938F939F93AF93BF93EF930A
S1130280FF930E94E400FF91EF91BF91AF919F9182
S11302908F917F916F915F914F913F912F910F902B
S11302A00FBE0F901F9018951092C5008DE4809397
S11302B0C40088E18093C10086E08093C200089561
S11302C0E0ECF0E0908195FFFDCF8093C6000895A7
S11302D0CF93DF93EC018881882331F021960E942B
S11302E0600189918111FBCFDF91CF910895CF9364
S11302F0C82F8A3048F08DECC89F812D1124869533
S1130300869586950E9477018DECC89F812D1124D6
S1130310869586958695880F982F990F990F890F42
S1130320C81B8C2F805D0E946001CF910895F894C2
S1050330FFCFF9
S1130332FFFF0A526F74617279200020506F73209C
S11303423A007F3F3E3A38B898180848494D4F0F53
S11303522FAFBF9F1F1D1C5C4C0C0424A4A6A787AF
S113036297D7DFCF8F8E0E2E260602125253D3C397
S1130372CBEBEFE7C74707171303010929A9E9E103
S1130382E5F5F7F3E3A3838B8981808494D4F4F0B5
S1130392F2FAFBF9F1D1C1C5C4C040424A6A7A7883
S11303A2797DFDFCF8E8E0E26260202125353D3CE0
S11303B2BCBEFE7E7C74707131301090929A9E1E87
S10503C25E5F78
S9030000FC
