S0110000526F74617279456E632E737265637C
S11300000C943E000C945B000C945B000C945B001D
S11300100C9481000C945B000C945B000C945B00CA
S11300200C945B000C945B000C945B000C945B00E0
S11300300C945B000C945B000C945B000C945B00D0
S11300400C94AD020C945B000C945B000C945B006C
S11300500C945B000C945B000C945B000C945B00B0
S11300600C945B000C945B000C945B000C945B00A0
S11300700C945B000C945B000C945B0011241FBE79
S1130080CFEFD0E1DEBFCDBF12E0A0E0B1E0ECEEF7
S1130090F5E002C005900D92A83DB107D9F725E01F
S11300A0A8EDB2E001C01D92AB3AB207E1F70E949D
S11300B05D000C94F4020C9400000E94D1020E9492
S11300C0A4020E9465007894FFCF81B181B982B106
S11300D08FEF82B9539A5B9AEBEAF4E08BEA95E0EE
S11300E02FEF2193E817F907E1F7E8E5F2E080E064
S11300F0A191B0E0A555BB4F8C938F5F8038C1F7B9
S113010008951F920F920FB60F9211242F933F93CD
S11301104F935F936F937F938F939F93AF93BF930B
S1130120EF93FF9382E091E00E94E5028091A604A0
S113013081110DC090B18091010189279091AA0489
S1130140892B8093AA0480B1809301010CC090B1E3
S11301508091000189279091A804892B8093A80499
S113016080B180930001FF91EF91BF91AF919F9176
S11301708F917F916F915F914F913F912F910F904C
S11301800FBE0F901F90189580B1089581111BC068
S11301905B9A0E94C400E82FF0E0E555FB4F808194
S11301A08F3F39F484E191E00E94E5028091A90433
S11301B008950E94C400E82FF0E0E555FB4F8081CC
S11301C08093A90408955B980E94C400E82FF0E08E
S11301D0E555FB4F80818F3F39F484E191E00E9423
S11301E0E5028091A70408950E94C400E82FF0E07E
S11301F0E555FB4F80818093A7040895DF92EF9229
S1130200FF920F931F93CF93DF93C0E0D0E000E001
S113021010E0E12CF12C8091E202282F30E02C1B1D
S11302203D0B22F4865BD82EDC1A02C0D82EDC1AD1
S11302308AE48D1520F485E291E00E94E5028D2D7B
S113024090E0880F991FFC01EB53FC4F2081318112
S1130250E20EF31EFC01EC51FD4F80819181080FE9
S1130260191F2196CA31D105B1F6C701992324F487
S1130270882799278E199F098131910524F021E05F
S11302802093E10202C01092E102819724F081E000
S11302908093E00202C01092E0028091DF0281119B
S11302A009C08091E102882369F081E391E00E9412
S11302B0E50208C08091E102811104C084E591E067
S11302C00E94E5028091DE02811109C08091E00262
S11302D0882369F085E791E00E94E50208C08091D7
S11302E0E002811104C088E991E00E94E502C8019E
S11302F0992324F488279927801B910B8131910538
S113030024F021E02093DD0202C01092DD028197E7
S113031024F081E08093DC0202C01092DC02809120
S1130320DB02811109C08091DD02882369F089EB29
S113033091E00E94E50208C08091DD02811104C0B1
S11303408CED91E00E94E5028091DA02811109C0EE
S11303508091DC02882369F08DEF91E00E94E50230
S113036008C08091DC02811104C080E292E00E9406
S1130370E5028091E1028093DF028091E0028093A4
S1130380DE028091DD028093DB028091DC028093A7
S1130390DA02DF91CF911F910F91FF90EF90DF90E0
S11303A008959091E302992319F0AFEFA90F01C0CA
S11303B0AAE48091E202882319F03FEF380F01C0CC
S11303C03AE42091A604211152C0892F90E0209193
S11303D0A904FC01E55AFB4F20832C31A8F4EA2F31
S11303E0F0E0E55AFB4F3081353670F0FC01EE0F3A
S11303F0FF1FEB53FC4F80E890E0831B9109820FB1
S1130400911D9183808326C02536A8F0EA2FF0E061
S1130410E55AFB4F30813C3170F4FC01EE0FFF1FB5
S1130420EB53FC4F822F90E080589109831B910974
S1130430918380830FC0FC01EE0FFF1FEB53FC4F31
S1130440822F90E0B0E0A55ABB4F2C91821B9109FA
S1130450918380830E94FE008091E3028A3419F420
S11304601092E30208958F5F8093E302089590E071
S11304702091A704FC01E658FC4F20832C31A8F4FA
S1130480E32FF0E0E658FC4F4081453670F0FC0164
S1130490EE0FFF1FEC51FD4F80E890E0841B9109A3
S11304A0820F911D9183808327C02536A8F0E32F06
S11304B0F0E0E658FC4F40814C3170F4FC01EE0F43
S11304C0FF1FEC51FD4F822F90E080589109841B4F
S11304D091099183808310C0FC01EE0FFF1FEC5142
S11304E0FD4F822F90E0A32FB0E0A658BC4F2C9173
S11304F0821B9109918380830E94FE008091E20215
S11305008A3419F41092E20208958F5F8093E20214
S113051008958091A604811107C00E94C6008093AB
S1130520A9048093D90206C00E94C6008093A70440
S11305308093D8020E94D10181E09091A604911188
S113054080E08093A60408958AEE87BD82E084BD8E
S113055080936E0085E085BD08951F920F920FB6BB
S11305600F9211242F933F934F935F936F937F9335
S11305708F939F93AF93BF93EF93FF930E9489024E
S1130580FF91EF91BF91AF919F918F917F916F9167
S11305905F914F913F912F910F900FBE0F901F903D
S11305A018951092C5008DE48093C40088E180936F
S11305B0C10086E08093C2000895E0ECF0E09081F1
S11305C095FFFDCF8093C6000895CF93DF93EC0190
S11305D08881882331F021960E94DD02899181115E
S10F05E0FBCFDF91CF910895F894FFCF7A
S11305ECFFFF427574746F6E20696E746572727558
S11305FC70740A00454E434F444552204552524FA5
S113060C5221200A00494E444558204552524F521B
S113061C00526F7461727920656E636F6465722029
S113062C31205350454544205741524E494E47289A
S113063C31290A00526F7461727920656E636F649C
S113064C6572203120535045454420434C4541525A
S113065C2831290A00526F7461727920656E636FB8
S113066C6465722031205350454544205741524E05
S113067C494E472832290A00526F746172792065F9
S113068C6E636F646572203120535045454420439A
S113069C4C4541522832290A00526F7461727920F8
S11306AC656E636F64657220322053504545442057
S11306BC5741524E494E472831290A00526F7461F2
S11306CC727920656E636F646572203220535045D5
S11306DC454420434C4541522831290A00526F7439
S11306EC61727920656E636F646572203220535099
S11306FC454544205741524E494E472832290A0059
S113070C526F7461727920656E636F646572203206
S113071C20535045454420434C4541522832290A24
S113072C00526F742031205761726E00526F742026
S113073C3120436C656172007F3F3E3A38B898189B
S113074C0848494D4F0F2FAFBF9F1F1D1C5C4C0C0D
S113075C0424A4A6A78797D7DFCF8F8E0E2E260648
S113076C02125253D3C3CBEBEFE7C747071713035C
S113077C010929A9E9E1E5F5F7F3E3A3838B898161
S113078C808494D4F4F0F2FAFBF9F1D1C1C5C4C05D
S113079C40424A6A7A78797DFDFCF8E8E0E26260CE
S11307AC202125353D3CBCBEFE7E7C7470713130FD
S10B07BC1090929A9E1E5E5FEC
S9030000FC
