:100000000C943E000C945B000C945B000C945B0021
:100010000C945B000C945D000C945B000C945B00F2
:100020000C945B000C945B000C945B000C945B00E4
:100030000C945B000C945B000C945B000C945B00D4
:100040000C94A1020C945B000C945B000C945B007C
:100050000C945B000C945B000C945B000C945B00B4
:100060000C945B000C945B000C945B000C945B00A4
:100070000C945B000C945B000C945B0011241FBE7D
:10008000CFEFD0E1DEBFCDBF12E0A0E0B1E0E4ED04
:10009000F5E002C005900D92A83DB107D9F725E023
:1000A000A8EDB2E001C01D92A93AB207E1F70E94A3
:1000B0007D000C94E8020C9400001F920F920FB682
:1000C0000F9211242F938F939F9393B180910101ED
:1000D00098232091000192272091D802922B90938F
:1000E000D80293B18923809300019F918F912F9122
:1000F0000F900FBE0F901F9018950E94C5020E948E
:1001000098020E9485007894FFCF91B180910201FE
:100110008095892B81B992B180910201892B82B996
:10012000539A5B9AE9EAF4E089EA95E02FEF21938C
:10013000E817F907E1F7E8E5F2E080E0A191B0E027
:10014000A755BB4F8C938F5F8038C1F7089590B14E
:100150008091020189230895811136C05B9A0E9423
:10016000A700E82FF0E0E755FB4F80818F3F39F47F
:1001700083E091E00E94D9028091A80408950E9432
:10018000A700E82FF0E0E755FB4F80818093A8049B
:1001900081528F3360F48091E102811104C089E1C2
:1001A00091E00E94D90281E08093E1020AC080912F
:1001B000E102813031F484E191E00E94D902109291
:1001C000E1028091A80408955B980E94A700E82F9F
:1001D000F0E0E755FB4F80818F3F39F483E091E0F9
:1001E0000E94D9028091A70408950E94A700E82FD9
:1001F000F0E0E755FB4F80818093A7040895DF92DC
:10020000EF92FF920F931F93CF93DF93C0E0D0E064
:1002100000E010E0E12CF12C8091E202282F30E088
:100220002C1B3D0B22F4865BD82EDC1A02C0D82E84
:10023000DC1A8AE48D1520F485E291E00E94D9024F
:100240008D2D90E0880F991FFC01EB53FC4F20810E
:100250003181E20EF31EFC01EC51FD4F8081918152
:10026000080F191F2196CA31D105B1F6C70199238C
:1002700024F4882799278E199F098131910524F04C
:1002800021E02093E00202C01092E002819724F066
:1002900081E08093DF0202C01092DF028091DE02D3
:1002A000811109C08091E002882369F081E391E027
:1002B0000E94D90208C08091E002811104C084E547
:1002C00091E00E94D9028091DD02811109C08091E4
:1002D000DF02882369F085E791E00E94D90208C017
:1002E0008091DF02811104C088E991E00E94D90267
:1002F000C801992324F488279927801B910B813109
:10030000910524F021E02093DC0202C01092DC026F
:10031000819724F081E08093DB0202C01092DB021F
:100320008091DA02811109C08091DC02882369F092
:1003300089EB91E00E94D90208C08091DC02811112
:1003400004C08CED91E00E94D9028091D902811104
:1003500009C08091DB02882369F08DEF91E00E9453
:10036000D90208C08091DB02811104C080E292E0D2
:100370000E94D9028091E0028093DE028091DF0228
:100380008093DD028091DC028093DA028091DB02AF
:100390008093D902DF91CF911F910F91FF90EF9041
:1003A000DF9008959091E302992319F0AFEFA90F20
:1003B00001C0AAE48091E202882319F03FEF380FD0
:1003C00001C03AE42091A604211152C0892F90E087
:1003D0002091A804FC01E55AFB4F20832C31A8F49E
:1003E000EA2FF0E0E55AFB4F3081353670F0FC0122
:1003F000EE0FFF1FEB53FC4F80E890E0831B910949
:10040000820F911D9183808326C02536A8F0EA2FA4
:10041000F0E0E55AFB4F30813C3170F4FC01EE0F07
:10042000FF1FEB53FC4F822F90E080589109831BF4
:100430009109918380830FC0FC01EE0FFF1FEB53E6
:10044000FC4F822F90E0B0E0A55ABB4F2C91821B4D
:100450009109918380830E94FF008091E3028A3496
:1004600019F41092E30208958F5F8093E3020895D8
:1004700090E02091A704FC01E658FC4F20832C312A
:10048000A8F4E32FF0E0E658FC4F4081453670F0C9
:10049000FC01EE0FFF1FEC51FD4F80E890E0841B44
:1004A0009109820F911D9183808327C02536A8F082
:1004B000E32FF0E0E658FC4F40814C3170F4FC0132
:1004C000EE0FFF1FEC51FD4F822F90E080589109F5
:1004D000841B91099183808310C0FC01EE0FFF1FE4
:1004E000EC51FD4F822F90E0A32FB0E0A658BC4FF7
:1004F0002C91821B9109918380830E94FF0080913F
:10050000E2028A3419F41092E20208958F5F809318
:10051000E20208958091A6040E94AC000E94D201DC
:1005200081E09091A604911180E08093A604089543
:100530008AEE87BD82E084BD80936E0085E085BD34
:1005400008951F920F920FB60F9211242F933F938D
:100550004F935F936F937F938F939F93AF93BF93CB
:10056000EF93FF930E948A02FF91EF91BF91AF91A9
:100570009F918F917F916F915F914F913F912F91BB
:100580000F900FBE0F901F9018951092C5008DE42C
:100590008093C40088E18093C10086E08093C2000C
:1005A0000895E0ECF0E0908195FFFDCF8093C600C8
:1005B0000895CF93DF93EC018881882331F0219651
:1005C0000E94D10289918111FBCFDF91CF910895D3
:0405D000F894FFCFCD
:1005D400E0E0FF454E434F444552204552524F52AE
:1005E40021200A00455849542044414E4745522091
:1005F4005A4F4E4500494E444558204552524F5299
:1006040000526F7461727920656E636F6465722045
:1006140031205350454544205741524E494E4728B6
:1006240031290A00526F7461727920656E636F64B8
:100634006572203120535045454420434C45415276
:100644002831290A00526F7461727920656E636FD4
:100654006465722031205350454544205741524E21
:10066400494E472832290A00526F74617279206515
:100674006E636F64657220312053504545442043B6
:100684004C4541522832290A00526F746172792014
:10069400656E636F64657220322053504545442073
:1006A4005741524E494E472831290A00526F74610E
:1006B400727920656E636F646572203220535045F1
:1006C400454420434C4541522831290A00526F7455
:1006D40061727920656E636F6465722032205350B5
:1006E400454544205741524E494E472832290A0075
:1006F400526F7461727920656E636F646572203223
:1007040020535045454420434C4541522832290A40
:1007140000526F742031205761726E00526F742042
:100724003120436C656172007F3F3E3A38B89818B7
:100734000848494D4F0F2FAFBF9F1F1D1C5C4C0C29
:100744000424A4A6A78797D7DFCF8F8E0E2E260664
:1007540002125253D3C3CBEBEFE7C7470717130378
:10076400010929A9E9E1E5F5F7F3E3A3838B89817D
:10077400808494D4F4F0F2FAFBF9F1D1C1C5C4C079
:1007840040424A6A7A78797DFDFCF8E8E0E26260EA
:10079400202125353D3CBCBEFE7E7C747071313019
:0807A4001090929A9E1E5E5F08
:00000001FF
