S01100004C454420426C696E6B2E737265632E
S11300000C943E000C9448000C9448000C94480056
S11300100C9448000C9448000C9448000C9448003C
S11300200C9448000C9448000C9448000C9448002C
S11300300C9448000C9448000C9448000C9448001C
S11300400C9448000C9448000C9448000C9448000C
S11300500C9448000C9448000C9448000C944800FC
S11300600C9448000C9448000C9448000C944800EC
S11300700C9448000C9448000C94480011241FBEB2
S1130080CFEFD0E1DEBFCDBF0E944A000C945700F1
S11300900C940000279A2F9A2FE789EA93E02150C5
S11300A080409040E1F700C000001F9AF5CFF8941B
S10500B0FFCF7C
S9030000FC
