S00F0000536F6674706F742E7372656326
S11300000C943E000C945B000C945B000C945B001D
S11300100C945B000C9495000C945B000C945B00B6
S11300200C945B000C945B000C945B000C945B00E0
S11300300C945B000C945B000C945B000C945B00D0
S11300400C949E020C945B000C945B000C945B007B
S11300500C945B000C945B000C945B000C945B00B0
S11300600C9444010C945B000C945B000C945B00B6
S11300700C945B000C945B000C945B0011241FBE79
S1130080CFEFD0E1DEBFCDBF11E0A0E0B1E0EEEBF9
S1130090F6E002C005900D92A231B107D9F721E034
S11300A0A2E1B1E001C01D92A132B207E1F70E94C2
S11300B027020C945D030C940000CF93DF93CDB71B
S11300C0DEB784E290E024E230E0F9012081322FAF
S11300D0209108012095232BFC01208385E290E0E8
S11300E025E230E0F901308120910801232BFC0145
S11300F0208388E690E022E0FC0120838CE690E0F7
S11301002CE630E0F901308120910801232BFC0119
S1130110208383E290E0FC0190818091080189238F
S113012080930901DF91CF9108951F920F9200905F
S11301305F000F9211248F939F93EF93FF93CF93BC
S1130140DF93CDB7DEB783E290E0FC01908180912C
S11301500801982380910901982780911201892B25
S11301608093120183E290E0FC0190818091080168
S1130170892380930901DF91CF91FF91EF919F91A2
S11301808F910F9000925F000F901F901895CF935E
S1130190DF9300D0CDB7DEB780911201882309F434
S11301A04CC019828981282F30E081E090E0022E32
S11301B002C0880F991F0A94E2F78A839091120172
S11301C08A818923882391F18A81982F909580913F
S11301D012018923809312018981882F90E0805035
S11301E09F4FFC018081882309F183E290E0FC01A8
S11301F090818091080198238A8189238823B1F40E
S11302008981882F90E080509F4FFC01808181304C
S113021011F40E943A038981882F90E080509F4F07
S1130220FC018081823011F40E941C02898191E0DA
S1130230980F9983873009F0B5CF0F900F90DF9115
S1130240CF910895CF93DF93CDB7DEB78AE790E0DF
S11302502EE8FC0120838CE790E020910A01FC0148
S11302602083DF91CF910895CF93DF93CDB7DEB78D
S11302708AE790E02AE730E0F90120812064FC015C
S11302802083DF91CF9108951F920F9200905F0019
S11302900F9211242F933F934F935F936F937F9308
S11302A08F939F93AF93BF93EF93FF93CF93DF937A
S11302B000D0CDB7DEB788E790E0FC018081282F1D
S11302C030E089E790E0FC018081882F90E0982F4E
S11302D08827822B932B9A8389838CE790E0FC01F7
S11302E0908180910A01981709F03FC08091130111
S11302F09091140131E0009709F030E080911301EE
S11303009091140121E08130910509F020E0832FC0
S1130310822B882381F089819A8190930D018093A7
S11303200C01809113019091140101969093140192
S11303308093130111C080910C0190910D019C01D7
S1130340275E3F4F89819A812817390718F40E9444
S11303506E0202C00E9479028CE790E020910B01AA
S1130360FC0120830E94340151C08CE790E0FC0121
S1130370908180910B01981709F03FC0809113017F
S11303809091140131E0009709F430E08091130159
S11303909091140121E08130910509F420E0832F2C
S11303A08223882391F080910E0190910F019C018A
S11303B0275E3F4F89819A812817390718F40E94D4
S11303C0860212C00E9491020FC089819A81909383
S11303D00F0180930E0180911301909114010196F5
S11303E090931401809313018CE790E020910A010B
S11303F0FC0120830E94340109C083E290E023E2DF
S113040030E0F90120812068FC0120830F900F90D7
S1130410DF91CF91FF91EF91BF91AF919F918F9118
S11304207F916F915F914F913F912F910F90009227
S11304305F000F901F901895CF93DF93CDB7DEB771
S11304401092140110921301DF91CF910895CF936C
S1130450DF93CDB7DEB784E290E024E230E0F90127
S113046020812068FC0120830E9440020E94220116
S11304700E945D000E94530278940E943401FFCFD1
S1130480CF93DF93CDB7DEB78AE290E020911001DD
S1130490FC0120838BE290E020911001FC01208379
S11304A0DF91CF910895CF93DF93CDB7DEB787E483
S11304B090E02AEEFC01208384E490E022E0FC0139
S11304C020838EE690E022E0FC01208385E490E026
S11304D025E0FC012083DF91CF910895CF93DF9332
S11304E0CDB7DEB710921E0110921D01DF91CF919E
S11304F00895CF93DF93CDB7DEB781E090E090937A
S11305001E0180931D01DF91CF910895CF93DF9356
S1130510CDB7DEB710921C0110921B01DF91CF9171
S11305200895CF93DF93CDB7DEB781E090E0909349
S11305301C0180931B01DF91CF9108951F920F92AC
S113054000905F000F9211242F933F934F935F937A
S11305506F937F938F939F93AF93BF93EF93FF9387
S1130560CF93DF93CDB7DEB720911B0130911C01EF
S113057080911D0190911E01822B932B0097D1F045
S11305808091150190911601019690931601809324
S1130590150180911501909116018A3F910571F41E
S11305A085E290E025E230E0F90120812068FC0139
S11305B0208304C010921601109215010E94C700F6
S11305C080911F0190912001009709F43FC0809110
S11305D01701909118018A31910554F48091170103
S11305E0909118010196909318018093170116C0F9
S11305F083E290E023E230E0F90120812068FC01ED
S11306002083109218011092170180911901909182
S11306101A01019690931A0180931901809119018E
S113062090911A01863091058CF01092200110925D
S11306301F0110921A011092190185E290E025E23F
S113064030E0F90120812068FC012083DF91CF9103
S1130650FF91EF91BF91AF919F918F917F916F9196
S11306605F914F913F912F910F9000925F000F90F7
S11306701F901895CF93DF93CDB7DEB720911B0160
S113068030911C0180911D0190911E01822B932BAE
S1130690009751F485E290E025E230E0F9012081F1
S11306A02F77FC01208306C081E090E09093200125
S11106B080931F01DF91CF910895F894FFCF3E
S11306BE010200000000000003030001010001001C
S10506CE7F00A7
S9030000FC
