S00F0000536F6674706F742E7372656326
S11300000C943E000C945B000C945B000C945B001D
S11300100C945B000C945D000C945B000C945B00EE
S11300200C945B000C945B000C945B000C945B00E0
S11300300C945B000C945B000C945B000C945B00D0
S11300400C9425020C945B000C945B000C945B00F4
S11300500C945B000C945B000C945B000C945B00B0
S11300600C940C010C945B000C945B000C945B00EE
S11300700C945B000C945B000C945B0011241FBE79
S1130080CFEFD0E1DEBFCDBF11E0A0E0B1E0E6EC00
S1130090F5E002C005900D92A231B107D9F721E035
S11300A0A2E1B1E001C01D92AF31B207E1F70E94B5
S11300B0C3010C94E1020C9400001F920F92009073
S11300C05F000F9211248F939F93EF93FF93CF932D
S11300D0DF93CDB7DEB783E290E0FC01908180919D
S11300E00801982380910901982780911201892B96
S11300F08093120183E290E0FC01908180910801D9
S1130100892380930901DF91CF91FF91EF919F9112
S11301108F910F9000925F000F901F901895CF93CE
S1130120DF9300D0CDB7DEB780911201882309F4A4
S11301304CC019828981282F30E081E090E0022EA2
S113014002C0880F991F0A94E2F78A8390911201E2
S11301508A818923882391F18A81982F90958091AF
S113016012018923809312018981882F90E08050A5
S11301709F4FFC018081882309F183E290E0FC0118
S113018090818091080198238A8189238823B1F47E
S11301908981882F90E080509F4FFC0180818130BD
S11301A011F40E94BC028981882F90E080509F4FF7
S11301B0FC018081823011F40E94B601898191E0B2
S11301C0980F9983873009F0B5CF0F900F90DF9186
S11301D0CF910895CF93DF93CDB7DEB78AE790E050
S11301E02EE8FC0120838CE790E020910A01FC01B9
S11301F02083DF91CF910895CF93DF93CDB7DEB7FE
S11302008AE790E02AE730E0F90120812064FC01CC
S11302102083DF91CF9108951F920F9200905F0089
S11302200F9211242F933F934F935F936F937F9378
S11302308F939F93AF93BF93EF93FF93CF93DF93EA
S113024000D0CDB7DEB788E790E0FC018081282F8D
S113025030E089E790E0FC018081882F90E0982FBE
S11302608827822B932B9A8389838CE790E0FC0167
S1130270908180910A01981739F58091100190912D
S11302801101009739F089819A8190930D0180932F
S11302900C0111C080910C0190910D019C01275E0D
S11302A03F4F89819A812817390718F40E94F50174
S11302B002C00E9400028CE790E020910B01FC0137
S11302C020830E94FC003CC08CE790E0FC019081FC
S11302D080910B01981759F58091100190911101AB
S11302E0009791F480910E0190910F019C01275E7B
S11302F03F4F89819A812817390718F40E940D020B
S11303000DC00E9418020AC089819A8190930F013E
S113031080930E0110921101109210018CE790E06D
S113032020910A01FC0120830E94FC0009C083E2A1
S113033090E023E230E0F90120812068FC01208371
S11303400F900F90DF91CF91FF91EF91BF91AF91FB
S11303509F918F917F916F915F914F913F912F91D9
S11303600F9000925F000F901F901895CF93DF932A
S1130370CDB7DEB781E090E0909311018093100136
S1130380DF91CF910895CF93DF93CDB7DEB784E2A9
S113039090E024E230E0F90120812068FC01208310
S11303A00E94EA000E94DA010E94DA0178940E9415
S11303B0FC00FFCFCF93DF93CDB7DEB787E490E0A7
S11303C02AEEFC01208384E490E022E0FC012083F7
S11303D08EE690E022E0FC01208385E490E025E0B5
S11303E0FC012083DF91CF910895CF93DF93CDB7A4
S11303F0DEB710921C0110921B01DF91CF9108957A
S1130400CF93DF93CDB7DEB781E090E090931C01EA
S113041080931B01DF91CF910895CF93DF93CDB7E4
S1130420DEB710921A0110921901DF91CF9108954D
S1130430CF93DF93CDB7DEB781E090E090931A01BC
S113044080931901DF91CF9108951F920F9200902C
S11304505F000F9211242F933F934F935F936F93F9
S11304607F938F939F93AF93BF93EF93FF93CF9318
S1130470DF93CDB7DEB72091190130911A01809135
S11304801B0190911C01822B932B0097D1F080913A
S11304901301909114010196909314018093130118
S11304A080911301909114018A3F910571F485E2C2
S11304B090E025E230E0F90120812068FC012083EE
S11304C004C010921401109213010E948F008091B5
S11304D01D0190911E010097D9F180911501909111
S11304E01601893191059CF083E290E023E230E02B
S11304F0F90120812068FC012083809115019091ED
S11305001601019690931601809315010DC0109267
S1130510160110921501809117019091180101960E
S113052090931801809317018091170190911801FD
S1130530863091056CF010921E0110921D0185E227
S113054090E025E230E0F90120812068FC0120835D
S1130550DF91CF91FF91EF91BF91AF919F918F91D7
S11305607F916F915F914F913F912F910F900092E6
S11305705F000F901F901895CF93DF93CDB7DEB730
S11305802091190130911A0180911B0190911C0155
S1130590822B932B009761F485E290E025E230E012
S11305A0F9012081322F2FE72327FC01208306C085
S11305B081E090E090931E0180931D01DF91CF9123
S10905C00895F894FFCF3A
S11305C60102000000000000030300010100010015
S10505D601001E
S9030000FC
