S00F0000536F6674706F742E7372656326
S11300000C9447000C9464000C9464000C946400F9
S11300100C9464000C949E000C9464000C94640092
S11300200C9464000C9464000C9464000C946400BC
S11300300C9464000C9464000C9464000C946400AC
S11300400C9401030C9464000C9464000C946400FC
S11300500C9464000C9464000C9464000C9464008C
S11300600C944D010C9464000C9464000C94640092
S11300700C9464000C9464000C94640077027D0278
S1130080830289028F0295029B02A102A702112416
S11300901FBECFEFD0E1DEBFCDBF11E0A0E0B1E0E5
S11300A0EEEEF7E002C005900D92A231B107D9F748
S11300B021E0A2E1B1E001C01D92A532B207E1F74F
S11300C00E9430020C94F5030C940000CF93DF934C
S11300D0CDB7DEB784E290E024E230E0F90120817C
S11300E0322F209108012095232BFC01208385E2E7
S11300F090E025E230E0F901308120910801232BC2
S1130100FC01208388E690E022E0FC0120838CE659
S113011090E02CE630E0F901308120910801232B96
S1130120FC01208383E290E0FC019081809108012E
S1130130892380930901DF91CF9108951F920F9233
S113014000905F000F9211248F939F93EF93FF937E
S1130150CF93DF93CDB7DEB783E290E0FC019081CB
S113016080910801982380910901982780911201B8
S1130170892B8093120183E290E0FC0190818091AD
S11301800801892380930901DF91CF91FF91EF91B9
S11301909F918F910F9000925F000F901F90189580
S11301A0CF93DF9300D0CDB7DEB7809112018823BF
S11301B009F44CC019828981282F30E081E090E055
S11301C0022E02C0880F991F0A94E2F78A83909145
S11301D012018A818923882391F18A81982F90952D
S11301E0809112018923809312018981882F90E0E4
S11301F080509F4FFC018081882309F183E290E0C5
S1130200FC0190818091080198238A8189238823A5
S1130210B1F48981882F90E080509F4FFC01808148
S1130220813011F40E94CC038981882F90E08050A2
S11302309F4FFC018081823011F40E942502898144
S113024091E0980F9983873009F0B5CF0F900F9004
S1130250DF91CF910895CF93DF93CDB7DEB78AE7CF
S113026090E02EE8FC0120838CE790E020910A01C5
S1130270FC012083DF91CF910895CF93DF93CDB715
S1130280DEB78AE790E02AE730E0F90120812064B4
S1130290FC012083DF91CF9108951F920F9200906B
S11302A05F000F9211242F933F934F935F936F93AB
S11302B07F938F939F93AF93BF93EF93FF93CF93CA
S11302C0DF9300D0CDB7DEB788E790E0FC018081F2
S11302D0282F30E089E790E0FC018081882F90E0AE
S11302E0982F8827822B932B9A8389838CE790E01D
S11302F0FC01908180910A01981709F03FC0809118
S113030013019091140131E0009709F030E08091DD
S113031013019091140121E08130910509F020E04E
S1130320832F822B882381F089819A8190930D01F8
S113033080930C0180911301909114010196909384
S113034014018093130111C080910C0190910D014F
S11303509C01275E3F4F89819A812817390718F439
S11303600E94D10202C00E94DC028CE790E020913E
S11303700B01FC0120830E943D0151C08CE790E0F9
S1130380FC01908180910B01981709F03FC0809186
S113039013019091140131E0009709F430E0809149
S11303A013019091140121E08130910509F420E0BA
S11303B0832F8223882391F080910E0190910F0165
S11303C09C01275E3F4F89819A812817390718F4C9
S11303D00E94E90212C00E94F4020FC089819A812E
S11303E090930F0180930E01809113019091140159
S11303F0019690931401809313018CE790E020916F
S11304000A01FC0120830E943D0109C083E290E0BF
S113041023E230E0F90120812068FC0120830F9061
S11304200F90DF91CF91FF91EF91BF91AF919F9189
S11304308F917F916F915F914F913F912F910F9089
S113044000925F000F901F901895CF93DF93CDB764
S1130450DEB71092140110921301DF91CF91089529
S1130460CF93DF93CDB7DEB784E290E024E230E0AF
S1130470F90120812068FC0120830E9449020E9426
S11304802B010E9466000E94B60278940E943D01EE
S1130490FFCFCF93DF93CDB7DEB78AE290E0209110
S11304A01001FC0120838BE290E020911001FC01FB
S11304B02083DF91CF910895CF93DF9300D0CDB700
S11304C0DEB79A83898389819A81AA2797FDA095AB
S11304D0BA2F40E050E028E030E0841B950B281749
S11304E03907D8F1825C9F4FFC010C94EF038BE237
S11304F090E02FE3FC01208334C08BE290E026E0FF
S1130500FC0120832EC08BE290E02BE5FC012083CC
S113051028C08BE290E02FE4FC01208322C08BE210
S113052090E026E6FC0120831CC08BE290E02DE6DF
S1130530FC01208316C08BE290E02DE7FC012083B0
S113054010C08BE290E027E0FC0120830AC08BE21C
S113055090E02FE7FC01208304C08BE290E0FC01D3
S113056010820F900F90DF91CF910895CF93DF9376
S1130570CDB7DEB787E490E02AEEFC01208384E463
S113058090E022E0FC0120838EE690E022E0FC0172
S1130590208385E490E025E0FC012083DF91CF9166
S11305A00895CF93DF93CDB7DEB710922201109256
S11305B02101DF91CF910895CF93DF93CDB7DEB7BB
S11305C081E090E09093220180932101DF91CF910B
S11305D00895CF93DF93CDB7DEB710922001109228
S11305E01F01DF91CF910895CF93DF93CDB7DEB78D
S11305F081E090E09093200180931F01DF91CF91DF
S113060008951F920F9200905F000F9211242F9370
S11306103F934F935F936F937F938F939F93AF9386
S1130620BF93EF93FF93CF93DF93CDB7DEB72091C2
S11306301F01309120018091210190912201822B90
S1130640932B0097D1F0809115019091160101969A
S113065090931601809315018091150190911601D4
S11306608A3F910571F485E290E025E230E0F901DA
S113067020812068FC01208304C01092160110928E
S113068015010E94D00080912301909124010097CC
S113069009F43FC080911701909118018A319105A6
S11306A054F48091170190911801019690931801C8
S11306B08093170116C083E290E023E230E0F90151
S11306C020812068FC0120831092180110921701E8
S11306D08091190190911A01019690931A018093C7
S11306E019018091190190911A01863091058CF0BD
S11306F0109224011092230110921A0110921901F0
S113070085E290E025E230E0F90120812068FC01D7
S1130710208380911B0190911C018A31910554F42E
S113072080911B0190911C01019690931C01809370
S11307301B0113C080911D0190911E010E945C0257
S113074010921C0110921B0180911D0190911E01B9
S1130750019690931E0180931D0180911D0190913B
S11307601E018930910524F010921E0110921D0182
S1130770DF91CF91FF91EF91BF91AF919F918F91B5
S11307807F916F915F914F913F912F910F900092C4
S11307905F000F901F901895CF93DF93CDB7DEB70E
S11307A020911F013091200180912101909122011B
S11307B0822B932B009751F485E290E025E230E000
S11307C0F90120812F77FC01208306C081E090E0AD
S11307D09093240180932301DF91CF910895EE0F2C
S11107E0FF1F0590F491E02D0994F894FFCFCB
S11307EE01020000000000000303000101000100EB
S10507FE7F0076
S9030000FC
